:020000040800F2
:1000000000040020C10100081103000811030008CA
:100010001103000811030008110300081103000870
:10002000110300081103000811030008D11600088D
:1000300011030008110300081103000881230008C0
:100040001103000811030008110300081103000840
:100050001103000811030008110300081103000830
:10006000110300081103000811030008B11C000867
:10007000F11C0008311D0008711D0008B11D0008A9
:10008000F11D0008311E000871240008110300084A
:1000900011030008110300081103000811030008F0
:1000A00011030008110300081103000811030008E0
:1000B000D1290008110300081103000811030008EA
:1000C00011030008110300081103000811030008C0
:1000D0001103000811030008912D00081103000806
:1000E00011030008110300081103000811030008A0
:1000F000110300081103000811030008711E000815
:100100001103000811030008F12900081103000879
:10011000110300081103000811030008110300086F
:10012000B11E0008F11E0008311F0008711F0008F1
:10013000B11F000811030008110300081103000893
:10014000110300081103000811030008110300083F
:10015000F11F000831200008712000081103000879
:10016000110300081103000811030008110300081F
:10017000110300081103000811030008110300080F
:1001800011030008110300081103000811030008FF
:1001900011030008110300081103000811030008EF
:1001A00011030008110300081103000811030008DF
:1001B00011030008110300081103000811030008CF
:1001C00072B62E4880F3098840F20000CCF200009D
:1001D0004EF63471CEF20001086040F20000C0F229
:1001E000F0004EF68851CEF2000108604FF000009A
:1001F000E1EE100A4EF63C71CEF2000108600620D6
:1002000080F31488BFF36F8F02F00AFE1C481D496B
:100210001D4A91423CBF41F8040BFAE71B49174ABB
:1002200091423CBF41F8040BFAE71949194A1A4BAD
:100230009A423EBF51F8040B42F8040BF8E7002045
:100240001649174A91423CBF41F8040BFAE700F007
:100250004FF8144C144DAC4203DA54F8041B884791
:10026000F9E702F055FE114C114DAC4203DA54F897
:10027000041B8847F9E700F043B80000000800209D
:1002800055555555000000200004002000040020B2
:10029000D0310008000800200008002000080020DD
:1002A000980D0020C0010008C0010008C00100082E
:1002B000C001000800000000000000000000000075
:1002C0002DE9F04F2DED108AC1F80CD0D0F80CD0EC
:1002D000BDEC108ABDE8F08F002383F31188284617
:1002E000A047002000F014FD00F0B2FB00DFFEE7A5
:1002F000704700BFAFF30080AFF30080AFF3008022
:10030000FEE700BFAFF30080AFF30080AFF30080E3
:10031000FEE700BFAFF30080AFF30080AFF30080D3
:1003200084B00190019B03F0070303930A4BDB6841
:100330000293029A4FF6FF0313400293039B1A02A3
:10034000029B134343F0BF6343F400330293024A1A
:10035000029BD36004B0704700ED00E0AFF3008073
:1003600082B0034600918DF807309DF90730002BCD
:100370000CDA0C499DF8073003F00F03043B009A98
:10038000D2B21201D2B20B441A7609E006499DF9A5
:100390000730009AD2B21201D2B20B4483F8002384
:1003A00002B0704700ED00E000E100E0AFF3008034
:1003B00008B50E4B00229A600320FFF7B1FF0C4AEC
:1003C0000B4BDB6843F08073D3600A4A094B1B6810
:1003D00043F0010313606FF004000121FFF7C0FF39
:1003E0006FF001000221FFF7BBFF08BD00ED00E048
:1003F000F0ED00E0001000E0AFF30080AFF300800C
:1004000082B020230193019B83F3118802B07047CF
:1004100082B000230193019B83F3118802B07047DF
:1004200008B5FFF7EDFF08BDAFF30080AFF3008024
:1004300008B5FFF7EDFF08BDAFF30080AFF3008014
:1004400082B000230193019B83F3118862B602B04E
:10045000704700BFAFF30080AFF30080AFF30080C0
:10046000704700BFAFF30080AFF30080AFF30080B0
:1004700008B5FFF7E5FF08BDAFF30080AFF30080DC
:1004800008B5FFF7CDFF08BDAFF30080AFF30080E4
:1004900008B5FFF7CDFF08BDAFF30080AFF30080D4
:1004A00000B583B0184B9B6A0133174A9362164B11
:1004B000DB69164A934224D0134BDB699A68013AF0
:1004C0009A6019E0104BDB690193019BDB68009394
:1004D000019B0022DA60019B1B680C4A5A60019B59
:1004E0001B68094AD361FFF7D3FF019B1A69009B80
:1004F00010469847FFF7C4FF034BDB699B68002B4E
:10050000E0D003B05DF804FB000800201C080020C8
:1005100000B583B00190034B9B69034A9A61FFF7D2
:100520009FFFFCE700080020902F0008AFF3008039
:1005300000B583B0FFF73CFF00F03AF900F038F85F
:1005400000F0BEFC01F03CF801F08AF80E484021B2
:1005500000F046FB02460D4B9A610C4B9B69012251
:100560001A77FFF785FF094B9B69094A9A610023B7
:10057000009308484FF4B0710122074B00F098FB3C
:1005800003B05DF804FB00BF300800200008002025
:10059000C02F00087808002011050008AFF3008084
:1005A00008B5FFF77DFF08BDAFF30080AFF3008013
:1005B000064B074ADA61054B054A1A62034B4FF0B6
:1005C000FF325A62014B00229A62704700080020F5
:1005D0001C080020AFF30080AFF30080AFF3008071
:1005E00086B00390029101920093039B009A1A61D6
:1005F000039B019ADA60029B0493174BDB69059316
:1006000007E0059B9B68049AD31A0493059B1B681B
:100610000593059B9A68049B9A42F2D3039B059A23
:100620001A60039B1B685A68039B5A60039B5B68B4
:10063000039A1A60059B039A5A60039B049A9A6076
:10064000059B9A68049BD21A059B9A60024B4FF057
:10065000FF325A6206B0704700080020AFF30080F6
:1006600082B00190019B1B68019A12689168019AFF
:1006700092680A449A60019B5B68019A12681A604A
:10068000019B1B68019A52685A60019B0022DA6044
:10069000024B4FF0FF325A6202B070470008002050
:1006A00082B020230193019B83F3118802B070472D
:1006B00082B000230193019B83F3118802B070473D
:1006C00008B5FFF7EDFF08BDAFF30080AFF3008082
:1006D00008B5FFF7EDFF08BDAFF30080AFF3008072
:1006E00082B00190019B019A1A60019B019A5A60A5
:1006F00002B07047AFF30080AFF30080AFF300802B
:1007000084B00190019B1B680393039B1A68019BB3
:100710001A60019B1B68019A5A60039B184604B03B
:10072000704700BFAFF30080AFF30080AFF30080ED
:1007300082B00190019B5B68019A12681A60019B6C
:100740001B68019A52685A60019B184602B07047B4
:1007500008B5FFF7B5FF08BDAFF30080AFF3008029
:1007600008B5FFF7B5FF08BDAFF30080AFF3008019
:1007700082B00190019BDB68002B14BF0123002392
:10078000DBB2184602B07047AFF30080AFF30080D1
:1007900082B00190019B9B685A1C019B9A6002B039
:1007A000704700BFAFF30080AFF30080AFF300806D
:1007B00008B50648FFF794FF044B00229A60034BEC
:1007C000024A1A61014B014A5A6108BD0008002023
:1007D00084B00190019B00221A770E4B0393039B78
:1007E0001B680393039B9A68019B9B689A42F6D20D
:1007F000019B039A1A60039B5A68019B5A60019BF4
:100800005B68019A1A60039B019A5A60019B184623
:1008100004B0704700080020AFF30080AFF3008001
:1008200000B585B003468DF807300D4B9B690393E7
:10083000039B9DF807201A770948FFF761FF0246DE
:10084000074B9A61064B9B6901221A77044B9B69FF
:1008500018460399FFF734FD05B05DF804FB00BFAF
:1008600000080020AFF30080AFF30080AFF30080FA
:1008700000B585B00190019B0393FFF769FF039BCF
:100880001B7F072B23D801A252F823F0AD080008E4
:10089000CF080008CF080008B3080008C708000800
:1008A000BD080008CF080008C7080008FFF758FF78
:1008B00017E0039B1B6A00221A6009E0039B1B6A76
:1008C0001846FFF765FF0398FFF732FF00E000BF0F
:1008D000039B4FF0FF321A620398FFF779FFFFF78F
:1008E0003FFF05B05DF804FBAFF30080AFF300807D
:1008F00000B589B0034600918DF80730009BB3F135
:10090000FF3F19D0124B9B6903AA10460099114A68
:10091000FFF766FE9DF807301846FFF781FF03AB2F
:100920001846FFF725FF0346002B04D003AB1846FB
:10093000FFF796FE05E004E09DF807301846FFF744
:100940006FFF034B9B691B6A184609B05DF804FBF7
:100950000008002071080008AFF30080AFF30080AA
:1009600000B585B001900091019B009A1A62019B2D
:100970009A680E4B9B699B689A4203D80198FFF7CF
:1009800027FF0FE0094B9B691846FFF721FF0390F3
:10099000064A019B9361019B01221A7701980399F2
:1009A000FFF78EFC05B05DF804FB00BF00080020D7
:1009B00082B0094B1B689B680193074B9B699B683E
:1009C0000093019A009B9A428CBF01230023DBB263
:1009D000184602B0704700BF00080020AFF3008047
:1009E00000B583B0184B9B6900931748FFF788FE4A
:1009F0000246154B9A61144B9B6901221A77009BA2
:100A000000221A77104B0193019B1B680193019BF5
:100A10009A68009B9B689A42F6D8009B019A1A60DC
:100A2000019B5A68009B5A60009B5B68009A1A60A1
:100A3000019B009A5A60044B9B6918460099FFF786
:100A40003FFC03B05DF804FB00080020AFF300801A
:100A500008B5FFF7C5FF08BDAFF30080AFF3008016
:100A600082B020230193019B83F3118802B0704769
:100A700082B000230193019B83F3118802B0704779
:100A800082B00190019B019A1A6002B0704700BFCA
:100A900082B00190019B1A68019B9A4214BF012306
:100AA0000023DBB2184602B0704700BFAFF30080EE
:100AB00082B00190019B019A1A60019B019A5A60D1
:100AC00002B07047AFF30080AFF30080AFF3008057
:100AD00082B00190019B1A68019B9A4214BF0123C6
:100AE0000023DBB2184602B0704700BFAFF30080AE
:100AF00084B00190019B1B680393039B1A68019BC0
:100B00001A60039B184604B0704700BFAFF3008023
:100B100082B001900091019B009A1A60009B5A6874
:100B2000019B5A60019B5B68019A1A60009B019AC5
:100B30005A6002B0704700BFAFF30080AFF300808F
:100B400084B00190019B1B680393039B1A68019B6F
:100B50001A60019B1B68019A5A60039B184604B0F7
:100B6000704700BFAFF30080AFF30080AFF30080A9
:100B700008B5FFF775FF08BDAFF30080AFF3008045
:100B800008B5FFF775FF08BDAFF30080AFF3008035
:100B900000B583B0019008200199FFF7A9FE03B0CA
:100BA0005DF804FBAFF30080AFF30080AFF300808B
:100BB00000B585B0019000910198FFF7C1FF039047
:100BC000039B009A1A620398FFF702FE05B05DF8D6
:100BD00004FB00BFAFF30080AFF30080AFF30080F1
:100BE00000B583B001900091019B009A9A60019B2F
:100BF00002221A77019B00225A77019B009ADA633E
:100C0000019B00229A63019B00225A63019B0122EF
:100C10009A77019B00229A61019B0E4A1A610D4B43
:100C20005A69019B5A61019B5B69019A1A61094AE1
:100C3000019B5361019B24331846FFF721FF019B61
:100C400028331846FFF734FF019B184603B05DF8C0
:100C500004FB00BF00080020AFF30080AFF300806A
:100C600000B587B00390029101920093039B059316
:100C7000029B643B039A1A44059BDA60059BDB6880
:100C8000009A1A64059BDB68089A5A64059BDB6826
:100C9000054A1A6605980199FFF7A2FF0346184610
:100CA00007B05DF804FB00BFD9020008AFF3008075
:100CB00000B589B00590049103920293FFF758FFA5
:100CC0000A9B009305980499039A029BFFF7C8FFBB
:100CD000079007980021FFF743FEFFF751FF079B9E
:100CE000184609B05DF804FBAFF30080AFF3008055
:100CF00000B583B00190FFF73BFF0198FFF748FF75
:100D0000FFF73EFF03B05DF804FB00BFAFF30080C8
:100D100000B583B00190FFF72BFF019800F008F8B1
:100D200003B05DF804FB00BFAFF30080AFF30080B9
:100D300000B585B00190174B9B690393039B019A03
:100D40001A6208E0039B24331846FFF7D1FE0346DE
:100D50001846FFF73DFD039B24331846FFF798FE26
:100D60000346002BEED1039B5B7F03F00303002BB4
:100D700009D1039B5B69039A12691A61039B1B6982
:100D8000039A52695A610F20FFF74AFD05B05DF8DA
:100D900004FB00BF00080020AFF30080AFF3008029
:100DA00000B585B001900091019B1B68002B0BD012
:100DB000019B1B680393019B00221A60039B009A0E
:100DC0001A620398FFF704FD05B05DF804FB00BF4D
:100DD00000B583B001900091009B002B02D14FF031
:100DE000FF330AE0074B9B6918460199FFF790FE15
:100DF00004200099FFF77CFD0346184603B05DF818
:100E000004FB00BF00080020AFF30080AFF30080B8
:100E100000B583B0019000910198FFF759FE034699
:100E2000002B03D001980099FFF7C2FE03B05DF8D4
:100E300004FB00BFAFF30080AFF30080AFF300808E
:100E4000014B5B6818467047001000E0AFF300806C
:100E500084B0039002910192039BDB685A1C039BB0
:100E6000DA60039B9B68029AD21A019BD21A039BF9
:100E70009A60039BD3E90401039B9B681A464FF0D9
:100E80000003121843EB01030399C1E90423039BF8
:100E90009A68039B5B689A4204D9039B9A68039BF8
:100EA0005A6009E0039B9A68039B1B689A4203D22D
:100EB000039B9A68039B1A6004B07047AFF30080ED
:100EC00000B587B00A4B00225A676B46184600F0FF
:100ED00017F86B46184600F02BF86B46184600F0E2
:100EE00037F8029B024A536707B05DF804FB00BF66
:100EF00000080020AFF30080AFF30080AFF3008064
:100F000082B00190019B4FF0FF321A60019B0022DA
:100F10005A60019B00229A60019B0022DA600199CD
:100F20004FF000024FF00003C1E9042302B0704704
:100F300000B583B00190FFF783FF0246019B9A60E2
:100F400003B05DF804FB00BFAFF30080AFF3008097
:100F500000B583B00190FFF773FF0246044B5B6F4F
:100F6000019811461A46FFF773FF03B05DF804FBC2
:100F700000080020AFF30080AFF30080AFF30080E3
:100F800082B00190019B019A1A60019B019A5A60FC
:100F900002B07047AFF30080AFF30080AFF3008082
:100FA00000B583B00190019B1846FFF7E9FF019B54
:100FB00000229A6003B05DF804FB00BFAFF300802D
:100FC00000B585B001900091019B1B6803931AE066
:100FD000039BDA68009B1A43039BDA60009B002B9B
:100FE00006D0039BDA68039B1B691340002B07D0D4
:100FF000039B5A68039B9B681046194600F010F843
:10100000039B1B680393039A019B9A42E0D105B0AE
:101010005DF804FBAFF30080AFF30080AFF3008016
:1010200000B583B001900091019B5A6B009B1A435D
:10103000019B5A63019B1B7F0A2B06D1019B5A6BB4
:10104000019B1B6A1340002B0CD1019B1B7F0B2BB8
:101050000ED1019B5A6B019B1B6A1A40019B1B6AB4
:101060009A4205D1019B00221A620198FFF7B0FB5A
:1010700003B05DF804FB00BFAFF30080AFF3008066
:1010800082B020230193019B83F3118802B0704743
:1010900082B000230193019B83F3118802B0704753
:1010A00082B00190019B019A1A60019B019A5A60DB
:1010B00002B07047AFF30080AFF30080AFF3008061
:1010C00008B5FFF7DDFF08BDAFF30080AFF3008088
:1010D00008B5FFF7DDFF08BDAFF30080AFF3008078
:1010E00000B583B001900198FFF7DAFF03B05DF817
:1010F00004FB00BFAFF30080AFF30080AFF30080CC
:1011000082B00190019B9B68002B0CBF0123002340
:10111000DBB2184602B07047AFF30080AFF3008037
:1011200082B00190019B5A69019B9B699A4205D14B
:10113000019B9B68002B01D0012300E0002303F0FA
:101140000103DBB2184602B0704700BFAFF3008066
:1011500082B00190019B5A69019B9B699A4205D11B
:10116000019B9B68002B01D0012300E0002303F0CA
:101170000103DBB2184602B0704700BFAFF3008036
:1011800082B00190019B9B68002B0CBF01230023C0
:10119000DBB2184602B07047AFF30080AFF30080B7
:1011A00000B585B00390029101920093039B18460D
:1011B000FFF796FF039B00229A60039B029ADA6076
:1011C000039B029A9A61039B029A5A61029A019BBD
:1011D0001A44039B1A61039B009ADA61039B069AE7
:1011E0001A6205B05DF804FBAFF30080AFF3008036
:1011F00000B583B001900B468DF803300198FFF7DE
:101200008FFF0346002B02D06FF003031CE0019B0D
:101210009B685A1C019B9A60019B5B69591C019A4F
:1012200051619DF803201A70019B5A69019B1B694B
:101230009A4203D3019BDA68019B5A61019B1846CD
:101240000021FFF7E5FD0023184603B05DF804FB1D
:1012500000B585B001900091FFF732FF019BDB697B
:10126000002B03D0019BDB69019898470CE0019BA0
:1012700018460099FFF7ACFD0390039B002B03DA9F
:10128000FFF726FF039B20E00198FFF739FF034695
:10129000002BECD1019B9B685A1E019B9A60019B1D
:1012A0009B69591C019A91611B788DF80B30019B49
:1012B0009A69019B1B699A4203D3019BDA68019BDF
:1012C0009A61FFF705FF9DF80B30184605B05DF8F1
:1012D00004FB00BFAFF30080AFF30080AFF30080EA
:1012E00000B587B00390029101920093039BDB69E4
:1012F000049300230593FFF7E3FE049B002B02D029
:10130000049B039898470BE0039B18460099FFF74E
:101310005FFD0346002B03D0FFF7DAFE059B2EE0AE
:101320000398FFF7EDFE0346002BEDD1039B9B686E
:101330005A1E039B9A60029B5A1C0292039A92695E
:10134000501C0399886112781A70039B9A69039B59
:101350001B699A4203D3039BDA68039B9A61FFF7E8
:10136000B7FE059B01330593019B013B0193019B54
:10137000002B01D1059B02E0FFF7A2FEBDE7184656
:1013800007B05DF804FB00BFAFF30080AFF300804F
:1013900000B585B00390029101920093039B18461B
:1013A000FFF79EFE039B019A9A60039B029ADA6004
:1013B000039B029A9A61039B029A5A61029A019BCB
:1013C0001A44039B1A61039B009ADA61039B069AF5
:1013D0001A6205B05DF804FBAFF30080AFF3008044
:1013E00000B587B003900B4601928DF80B30FFF7E4
:1013F00067FE0CE0039B18460199FFF7E9FC059096
:10140000059B002B03DAFFF763FE059B27E003989B
:10141000FFF7B6FE0346002BECD1039B9B685A1ED8
:10142000039B9A60039B5B69591C039A51619DF869
:101430000B201A70039B5A69039B1B699A4203D3C2
:10144000039BDA68039B5A61039BDB69002B03D083
:10145000039BDB6903989847FFF73AFE0023184681
:1014600007B05DF804FB00BFAFF30080AFF300806E
:1014700000B585B001900198FFF76AFE0346002B86
:1014800002D06FF002031DE0019B9B685A1C019B78
:101490009A60019B9B69591C019A91611B788DF898
:1014A0000F30019B9A69019B1B699A4203D3019BF0
:1014B000DA68019B9A61019B18460021FFF7A8FC9E
:1014C0009DF80F30184605B05DF804FBAFF30080BF
:1014D00000B587B00390029101920093039BDB69F2
:1014E000049300230593FFF7EBFD0BE0039B1846E5
:1014F0000099FFF76DFC0346002B03D0FFF7E8FDD2
:10150000059B34E00398FFF73BFE0346002BEDD12B
:10151000039B9B685A1E039B9A60039B5B69591C43
:10152000039A5161029A511C029112781A70039B1E
:101530005A69039B1B699A4203D3039BDA68039B96
:101540005A61049B002B02D0049B03989847FFF735
:10155000BFFD059B01330593019B013B0193019B5B
:10156000002B01D1059B02E0FFF7AAFDBDE718465D
:1015700007B05DF804FB00BFAFF30080AFF300805D
:1015800082B020230193019B83F3118802B070473E
:1015900082B000230193019B83F3118802B070474E
:1015A00008B5FFF7EDFF08BDAFF30080AFF3008093
:1015B00008B5FFF7EDFF08BDAFF30080AFF3008083
:1015C000064B073323F007031A46054B1A60054BF9
:1015D00023F007031A46044B1A607047980D002049
:1015E000D809002000000220DC090020AFF30080B1
:1015F00000B585B00190FFF7D3FF019800F008F81F
:101600000390FFF7D5FF039B184605B05DF804FB78
:1016100084B00190019B073323F0070301930C4B27
:101620001B681A460B4B1B68D31A1A46019B9A4239
:1016300001D2002309E0074B1B680393054B1A688E
:10164000019B1344034A1360039B184604B0704780
:10165000DC090020D8090020AFF30080AFF3008040
:1016600008B5064B064A1A60044B00229A60034BE9
:101670000022DA600348FFF793FC08BDE009002070
:10168000F1150008F0090020AFF30080AFF30080EF
:1016900082B020230193019B83F3118802B070472D
:1016A00082B000230193019B83F3118802B070473D
:1016B00008B5FFF7EDFF08BDAFF30080AFF3008082
:1016C00008B5FFF7EDFF08BDAFF30080AFF3008072
:1016D00010B582B00B4A0B4B5B6823F001035360DB
:1016E000EFF309831C4623460193019B6833019362
:1016F000019B0093009B83F30988FFF7E1FF02B091
:1017000010BD00BF30EF00E0AFF30080AFF300800A
:1017100010B584B0FFF7CCFF174B5B6803F4006390
:10172000002B25D0F1EE103A0293EFF309831C460B
:1017300023460393039B683B0393039B4FF0807204
:10174000DA610E4BDB681A46039B1A66039B019312
:10175000019B83F30988FFF72BF90346002B03D085
:10176000039B074A9A6105E0039B064A9A6101E0E0
:10177000FFF7A6FF04B010BD00ED00E030EF00E081
:10178000E9020008EC020008AFF30080AFF300802C
:10179000704700BFAFF30080AFF30080AFF300806D
:1017A00008B5FFF7F5FF00F0DBFC084800F070FF1C
:1017B00000F026F800F04CF800F07AF900F010FA8A
:1017C00001F036FB00F004F808BD00BFD03000087F
:1017D00008B500F0E5FD08BDAFF30080AFF3008071
:1017E00000B583B001900198FFF7DAFB03B05DF814
:1017F00004FB00BFAFF30080AFF30080AFF30080C5
:1018000008B500F0BDFE08BDAFF30080AFF3008067
:1018100000B583B00190019B01221A70019B002248
:101820005A60019B00229A60019B0022DA60019BB2
:1018300000221A61019B00225A61019B183318464D
:10184000FFF7CEFF03B05DF804FB00BFAFF30080ED
:1018500008B501F0DDF808BDAFF30080AFF30080FC
:1018600082B00190019B01221A70019B00225A60F4
:1018700002B07047AFF30080AFF30080AFF3008099
:1018800082B020230193019B83F3118802B070473B
:1018900082B000230193019B83F3118802B070474B
:1018A00008B5FFF7EDFF08BDAFF30080AFF3008090
:1018B00008B5FFF7EDFF08BDAFF30080AFF3008080
:1018C00082B00190019B019A1A6002B0704700BF7C
:1018D00082B00190019B9B68002B0CBF0123002369
:1018E000DBB2184602B07047AFF30080AFF3008060
:1018F00008B5FFF7D5FF08BDAFF30080AFF3008058
:1019000008B5FFF7D5FF08BDAFF30080AFF3008047
:1019100000B583B001900198FFF7D2FF03B05DF8E6
:1019200004FB00BFAFF30080AFF30080AFF3008093
:1019300000B583B00190009101980099FFF740FB3A
:1019400003B05DF804FB00BFAFF30080AFF300808D
:1019500000B585B0039002910192039B3033184685
:101960000299019A4FF0FF33FFF7B2FD0346184684
:1019700005B05DF804FB00BFAFF30080AFF300805B
:1019800000B585B0039002910192039B0C33184679
:101990000299019A4FF0FF33FFF7A2FC0346184665
:1019A00005B05DF804FB00BFAFF30080AFF300802B
:1019B00000B583B001900B468DF80330019B03F115
:1019C00030029DF80330104619464FF0FF32FFF702
:1019D00007FD0346184603B05DF804FBAFF3008033
:1019E00000B583B00190019B0C3318464FF0FF31D6
:1019F000FFF72EFC0346184603B05DF804FB00BF5A
:101A000000B585B003900B4601928DF80B30039B17
:101A100003F130029DF80B3010461946019AFFF78A
:101A2000DFFC0346184605B05DF804FBAFF3008009
:101A300000B583B001900091019B0C3318460099CA
:101A4000FFF706FC0346184603B05DF804FB00BF31
:101A500000B585B00390029101920093039B30334F
:101A600018460299019A009BFFF732FD034618467B
:101A700005B05DF804FB00BFAFF30080AFF300805A
:101A800000B585B00390029101920093039B0C3343
:101A900018460299019A009BFFF722FC034618465C
:101AA00005B05DF804FB00BFAFF30080AFF300802A
:101AB00008B501F07DF908BDAFF30080AFF30080F9
:101AC00000B587B0059004910392059B144A1A60F3
:101AD000059B04331846FFF71BFF059B01221A7272
:101AE000059B03F10C01059B03F15402059B009338
:101AF000084611461022049BFFF752FB059B03F199
:101B00003001059B03F16402059B009308461146D2
:101B10001022039BFFF73CFC07B05DF804FB00BFFD
:101B2000E02F0008AFF30080AFF30080AFF3008038
:101B300000B583B001900091FFF7DAFE019800999B
:101B400001F046F9019B02221A72FFF7D9FE03B099
:101B50005DF804FBAFF30080AFF30080AFF30080CB
:101B600000B583B001900B468DF80330019B0C3318
:101B70001846FFF7ADFE0346002B05D0019B04334A
:101B800018460421FFF7D4FE019B03F10C029DF8D7
:101B9000033010461946FFF72BFB0346002B05DAEE
:101BA000019B043318468021FFF7C2FE03B05DF8A5
:101BB00004FB00BFAFF30080AFF30080AFF3008001
:101BC00000B583B001900198FFF7EAF903B05DF822
:101BD00004FB00BFAFF30080AFF30080AFF30080E1
:101BE00008B500F04DFE08BDAFF30080AFF30080F4
:101BF00000B583B00190019B01221A70019B002265
:101C00005A60019B00229A60019B0C331846FFF733
:101C1000D7FF03B05DF804FBAFF30080AFF30080A3
:101C200082B001900091124A009BDBB21B01D9B235
:101C3000019B134403F540730A461A700C49019B3B
:101C40005B09019A02F01F02012000FA02F26033E0
:101C500041F823200649019B5B09019A02F01F020B
:101C6000012000FA02F241F8232002B0704700BFC1
:101C700000E100E0AFF30080AFF30080AFF300803D
:101C800082B001900091064A009BDBB21B01D9B2E1
:101C9000019B134418330A461A7002B0704700BF04
:101CA00000ED00E0AFF30080AFF30080AFF3008001
:101CB00000B583B00B4B1B6803F03D030193094A49
:101CC000019B9360084B1B68002B06D0064B1B68DA
:101CD000054A5268104601999847FFF719FD03B06D
:101CE0005DF804FB00600240040A0020AFF30080AE
:101CF00000B583B00C4B1B689B0903F03D030193B7
:101D0000094A019B9B019360084B9B68002B06D0FE
:101D1000064B9B68054AD268104601999847FFF721
:101D2000F7FC03B05DF804FB00600240040A0020E9
:101D300000B583B00C4B1B681B0C03F03D030193F3
:101D4000094A019B1B049360084B1B69002B06D0BA
:101D5000064B1B69054A5269104601999847FFF7DF
:101D6000D7FC03B05DF804FB00600240040A0020C9
:101D700000B583B00C4B1B689B0D03F03D03019332
:101D8000094A019B9B059360084B9B69002B06D079
:101D9000064B9B69054AD269104601999847FFF79F
:101DA000B7FC03B05DF804FB00600240040A0020A9
:101DB00000B583B00B4B5B6803F03D030193094A08
:101DC000019BD360084B1B6A002B06D0064B1B6A95
:101DD000054A526A104601999847FFF799FC03B0EB
:101DE0005DF804FB00600240040A0020AFF30080AD
:101DF00000B583B00C4B5B689B0903F03D03019376
:101E0000094A019B9B01D360084B9B6A002B06D0BB
:101E1000064B9B6A054AD26A104601999847FFF71C
:101E200077FC03B05DF804FB00600240040A002068
:101E300000B583B00C4B5B681B0C03F03D030193B2
:101E4000094A019B1B04D360084B1B6B002B06D077
:101E5000064B1B6B054A526B104601999847FFF7DA
:101E600057FC03B05DF804FB00600240040A002048
:101E700000B583B00C4B5B689B0D03F03D030193F1
:101E8000094A019B9B05D360084B9B6B002B06D036
:101E9000064B9B6B054AD26B104601999847FFF79A
:101EA00037FC03B05DF804FB00600240040A002028
:101EB00000B583B00B4B1B6803F03D030193094A47
:101EC000019B9360084B1B6C002B06D0064B1B6CD0
:101ED000054A526C104601999847FFF719FC03B068
:101EE0005DF804FB00640240040A0020AFF30080A8
:101EF00000B583B00C4B1B689B0903F03D030193B5
:101F0000094A019B9B019360084B9B6C002B06D0F8
:101F1000064B9B6C054AD26C104601999847FFF717
:101F2000F7FB03B05DF804FB00640240040A0020E4
:101F300000B583B00C4B1B681B0C03F03D030193F1
:101F4000094A019B1B049360084B1B6D002B06D0B4
:101F5000064B1B6D054A526D104601999847FFF7D5
:101F6000D7FB03B05DF804FB00640240040A0020C4
:101F700000B583B00C4B1B689B0D03F03D03019330
:101F8000094A019B9B059360084B9B6D002B06D073
:101F9000064B9B6D054AD26D104601999847FFF795
:101FA000B7FB03B05DF804FB00640240040A0020A4
:101FB00000B583B00B4B5B6803F03D030193094A06
:101FC000019BD360084B1B6E002B06D0064B1B6E8B
:101FD000054A526E104601999847FFF799FB03B0E6
:101FE0005DF804FB00640240040A0020AFF30080A7
:101FF00000B583B00C4B5B689B0903F03D03019374
:10200000094A019B9B01D360084B9B6E002B06D0B5
:10201000064B9B6E054AD26E104601999847FFF712
:1020200077FB03B05DF804FB00640240040A002063
:1020300000B583B00C4B5B681B0C03F03D030193B0
:10204000094A019B1B04D360084B1B6F002B06D071
:10205000064B1B6F054A526F104601999847FFF7D0
:1020600057FB03B05DF804FB00640240040A002043
:1020700000B583B00C4B5B689B0D03F03D030193EF
:10208000094A019B9B05D360084B9B6F002B06D030
:10209000064B9B6F054AD26F104601999847FFF790
:1020A00037FB03B05DF804FB00640240040A002023
:1020B00082B0164B00221A600023019311E01449EC
:1020C000019A13465B0013449B000B441B680022DB
:1020D0001A60104A019B002142F83310019B013322
:1020E0000193019B0F2BEADD0B4B4FF0FF329A60FF
:1020F000094B4FF0FF32DA60084B4FF0FF329A6025
:10210000064B4FF0FF32DA6002B07047000A002041
:1021100000300008040A0020006002400064024011
:102120000D4A0D4B1B6843F4807313600B4B1B6F00
:1021300003F44073B3F5007F06D0084B4FF48032B0
:102140001A67064B00221A67034A034B5B6823F4A5
:1021500000735360704700BF0070004000380240B9
:1021600008B5174B1B69164B4FF0FF321A61144B21
:1021700000221A61124B5B69114B4FF0FF325A611A
:102180000F4B00225A610E4A0D4B1B6A63F08053BD
:1021900013620B4B00221A62094B5B6A084B4FF02B
:1021A000FF325A62064B00225A62054A044B1B6CEE
:1021B00043F080531364FFF7B3FFFFF779FF08BDC7
:1021C00000380240AFF30080AFF30080AFF300802F
:1021D000404B4FF080521A643F4B4FF440421A601C
:1021E0003C4A3C4B1B6843F00103136000BF394B72
:1021F0001B6803F00203002BF9D0364A354B9B686D
:1022000023F003039360334A324B9B68936000BF13
:10221000304B9B6803F00C03002BF9D12D4A2D4B5A
:102220001B6803F0F90313602A4B00229A60294AC5
:10223000284B1B6843F48033136000BF254B1B6899
:1022400003F40033002BF9D0224A224B5B6F43F09A
:102250000103536700BF1F4B5B6F03F00203002BAA
:10226000F9D01C4B1D4A5A601A4A1A4B1B6843F09E
:102270008073136000BF184B5B6803F48043002B2E
:10228000F9D000BF134B1B6803F00073002BF9D08B
:10229000104B134A9A60134B40F205721A600D4AB4
:1022A0000C4B9B6843F00203936000BF094B9B6893
:1022B00003F00C03082BF9D1064A064B5B6C43F480
:1022C00080435364034A034B5B6E43F4804353667D
:1022D000704700BF003802400070004008544007BB
:1022E00000940838003C0240AFF30080AFF3008058
:1022F00082B020230193019B83F3118802B07047C1
:1023000082B000230193019B83F3118802B07047D0
:1023100008B5FFF7EDFF08BDAFF30080AFF3008015
:1023200008B5FFF7EDFF08BDAFF30080AFF3008005
:1023300008B5FFF7EDFF08BDAFF30080AFF30080F5
:1023400008B5FFF7EDFF08BDAFF30080AFF30080E5
:1023500008B5FFF7EDFF08BDAFF30080AFF30080D5
:1023600008B5FFF7EDFF08BDAFF30080AFF30080C5
:1023700008B5FEF715F908BDAFF30080AFF3008094
:1023800008B5FFF7E5FFFFF7F3FFFFF7E9FFFFF7FA
:10239000BFF908BDAFF30080AFF30080AFF300805A
:1023A00008B5074B074A5A60054B00229A60044B58
:1023B00007221A600B200821FFF762FC08BD00BF4E
:1023C00010E000E03F900200AFF30080AFF3008028
:1023D00082B020230193019B83F3118802B07047E0
:1023E00082B000230193019B83F3118802B07047F0
:1023F00008B5FFF7EDFF08BDAFF30080AFF3008035
:1024000008B5FFF7EDFF08BDAFF30080AFF3008024
:1024100008B5FFF7EDFF08BDAFF30080AFF3008014
:1024200008B5FFF7EDFF08BDAFF30080AFF3008004
:1024300008B5FFF7EDFF08BDAFF30080AFF30080F4
:1024400008B5FFF7EDFF08BDAFF30080AFF30080E4
:1024500000B583B00190009101980099FEF7A0FCAF
:1024600003B05DF804FB00BFAFF30080AFF3008062
:1024700000B583B03B4B1B6801933A4B00221A60B6
:10248000019B03F02003002B2DD0374BDB6A1B6828
:102490005B68002B27D0344B1B69002B23D03248BC
:1024A00000F09EF8304B1B699B68002B0FD02E4B21
:1024B00005221A702C4B1B699B682B4801219847F9
:1024C000294B1B78052B02D1274B02221A70264B71
:1024D00000221A61FFF7ACFF24484FF0FF31FFF7ED
:1024E000B7FFFFF7ADFF224B1B680193204B002283
:1024F0001A60019B03F02003002B2DD01D4BDB6ADB
:102500001B685B68002B27D01A4B1B69002B23D05C
:10251000184800F065F8174B1B699B68002B0FD01B
:10252000144B05221A70134B1B699B68114801213B
:102530009847104B1B78052B02D10E4B02221A70C4
:102540000C4B00221A61FFF773FF0B484FF0FF316D
:10255000FFF77EFFFFF774FFFFF7DAF803B05DF8CF
:1025600004FB00BF00200140840A0020980A0020DC
:1025700000210140B80A0020CC0A0020AFF30080FF
:1025800008B50E48FFF744F90C4B0D4A9A620B4B05
:102590000C4ADA62094B0C4A1A630C48FFF738F907
:1025A0000A4B0B4A9A62094B0A4ADA62074B0A4AFB
:1025B0001A6312200621FFF733FB08BD840A0020AE
:1025C0000020014090300008162C0200B80A0020BC
:1025D0000021014078300008162C0202AFF3008081
:1025E00082B00190019BDB6A1B68019AD26A126873
:1025F000126822F01F021A6000BF019BDB6A1B6891
:102600001B6803F00103002BF7D1019BDB6A5B68B9
:10261000019AD26A127A11463D228A401A60019BC1
:102620009B6A00225A60019B9B6A00229A60019B70
:102630009B6A01229A6002B0704700BFAFF300802E
:1026400082B001900091009B5A68019B5A60009BE8
:102650009A68019B9A60009BDA68019BDA60009B94
:102660001A69019B5A61009B5A69019B1A62009B7F
:102670009A69019B5A62009B1A68019B1A6002B01A
:10268000704700BFAFF30080AFF30080AFF300806E
:1026900000B583B00190244A234B1B6B6FEA532390
:1026A0006FEA43231363204A1F4B1B6D6FEA5323CA
:1026B0006FEA43231365019B1C481946FFF7C0FFCF
:1026C000019B1C331A481946FFF7BAFF019B3833A8
:1026D00018481946FFF7B4FF019B543316481946B2
:1026E000FFF7AEFF019B703314481946FFF7A8FFB0
:1026F000019B8C3312481946FFF7A2FF019BA833B8
:1027000010481946FFF79CFF019BC4330E48194639
:10271000FFF796FF019BE0330C481946FFF790FF47
:1027200003B05DF804FB00BF003802400000024027
:102730000004024000080240000C02400010024069
:102740000014024000180240001C02400020024019
:102750008EB0039002910192019B03F003030D934D
:10276000019B03F004039B080C93019B03F01803E7
:10277000DB080B93019B03F060035B090A93019B49
:1027800003F4F063DB09089300230993029B03F031
:102790000103002B54D0099B03F007039B001A464A
:1027A000089B93400793099B03F007039B001A467D
:1027B0000F2393400693099B072B09D8039B1A6AA2
:1027C000069BDB431A40079B1A43039B1A6208E0EF
:1027D000039B5A6A069BDB431A40079B1A43039BE1
:1027E0005A62099B012202FA03F30593039B5A687C
:1027F000059BDB431A400C9B1A43039B5A60099BC1
:102800005B001A46032393400493039B9A68049B3E
:10281000DB431A400B9B1A43039B9A60039BDA68C5
:10282000049BDB431A400A9B1A43039BDA60039B19
:102830001A68049BDB431A400D9B1A43039B1A60E2
:10284000029B5B080293029B002B00D10FE00C9BC4
:102850005B000C930B9B9B000B930A9B9B000A93C2
:102860000D9B9B000D93099B013309938EE70EB0DE
:10287000704700BFAFF30080AFF30080AFF300807C
:1028800008B50B4B4FF6FF721A800A48FFF7B0F9F4
:10289000084B094ADA61074B084A1A62054B084A95
:1028A0005A62044B074A9A62024B074ADA6208BD31
:1028B0001C0B0020EC0A00200038004024300008E7
:1028C000303000081600010046000100AFF3008020
:1028D00000B585B00190019BDB681B690393019BE8
:1028E000DB68DB68DBB2039A13400393019BDB6870
:1028F000039AD2431A61019B5B681B7D002B29D18F
:10290000039B03F00403002B0DD0019B1B78042BC9
:1029100009D1019B5B689B68002B04D0019B5B681D
:102920009B6801989847039B03F00203002B3AD061
:10293000019B1B78042B09D1019B5B68DB68002B92
:1029400004D0019B5B68DB6801989847019B0422D7
:102950001A7028E0039B03F00203002B0DD0019BAB
:102960001B78042B09D1019B5B689B68002B04D06A
:10297000019B5B689B6801989847039B03F00403E5
:10298000002B10D0019B1B78042B09D1019B5B68A5
:10299000DB68002B04D0019B5B68DB6801989847DB
:1029A000019B04221A70039B03F00103002B07D044
:1029B000019B5B681B6901989847019B03221A7071
:1029C00005B05DF804FB00BFAFF30080AFF30080FB
:1029D00008B50348FFF77CFFFEF79AFE08BD00BF6D
:1029E000200B0020AFF30080AFF30080AFF3008036
:1029F00008B50348FFF76CFFFEF78AFE08BD00BF6D
:102A0000380B0020AFF30080AFF30080AFF30080FD
:102A100008B50748FEF724FF054B4FF08042DA6007
:102A20000448FEF71DFF034B034ADA6008BD00BFF0
:102A3000200B0020380B0020000C0040AFF300807A
:102A400082B020230193019B83F3118802B0704769
:102A500082B000230193019B83F3118802B0704779
:102A600008B5FFF7EDFF08BDAFF30080AFF30080BE
:102A700008B5FFF7EDFF08BDAFF30080AFF30080AE
:102A800008B5FFF7EDFF08BDAFF30080AFF300809E
:102A900008B5FFF7EDFF08BDAFF30080AFF300808E
:102AA00082B00190019B5A69019B9B699A4205D1B2
:102AB000019B9B68002B01D0012300E0002303F061
:102AC0000103DBB2184602B0704700BFAFF30080CD
:102AD00008B5FFF7D5FF08BDAFF30080AFF3008066
:102AE00008B5FFF7D5FF08BDAFF30080AFF3008056
:102AF00000B583B00190009101980099FEF760FA4B
:102B000003B05DF804FB00BFAFF30080AFF30080BB
:102B100084B001900091019B5B6F0393019B5B6FFD
:102B20001C4A934204D0019B5B6F1B4A934207D11E
:102B3000009B1B68194AB2FBF3F2039B9A6006E004
:102B4000009B1B68164AB2FBF3F2039B9A60009B42
:102B5000DB8843F040039BB21A46039B1A61009B3B
:102B60001B8943F001039BB21A46039B5A61009BE9
:102B70009B8843F4045343F02C039BB21A46039BF7
:102B8000DA60039B00221A60039B1B68039B5B684F
:102B900004B07047001001400014014000BD010561
:102BA00080DE8002AFF30080AFF30080AFF30080DF
:102BB00000B585B001900B46ADF8023000230393B9
:102BC000BDF8023003F00803002B03D0039B43F051
:102BD00080030393BDF8023003F00103002B03D000
:102BE000039B43F020030393BDF8023003F002037C
:102BF000002B03D0039B43F040030393BDF8023046
:102C000003F00403002B03D0039B43F4807303936E
:102C1000019B043318460399FFF76AFF05B05DF87E
:102C200004FB00BFAFF30080AFF30080AFF3008080
:102C300000B587B00190019B5B6F0493049BDB6838
:102C4000ADF80E30049B1B68ADF81630BDF8163099
:102C500003F48073002B0ED0FFF73AFF019B04337F
:102C600018464FF40071FFF743FF049B6FF4807226
:102C70001A60FFF735FFFFF72BFF1FE0BDF8163096
:102C800003F00F03002B05D0BDF81630019819464C
:102C9000FFF78EFF049B5B688DF80D30BDF8163092
:102CA00003F02003002B05D09DF80D300198194644
:102CB000FEF756FF049B1B68ADF81630BDF81630C2
:102CC00003F02F03002BD9D1FFF70AFFBDF80E3018
:102CD00003F08003002B24D0BDF8163003F08003EE
:102CE000002B1ED0FFF7F4FE019B30331846FEF791
:102CF000BFFB0290029B002B0EDA019B04331846A7
:102D00000821FFF7F5FEBDF80E3023F0C00343F0B5
:102D10004002049BDA6002E0029A049B5A60FFF7CB
:102D2000DFFEBDF8163003F04003002B1BD0FFF789
:102D3000CFFE019B30331846FFF7B2FE0346002B4F
:102D400005D0019B043318461021FFF7D1FEBDF8D2
:102D50000E3023F04002049BDA60049B6FF04002C7
:102D60001A60FFF7BDFE07B05DF804FBAFF300800B
:102D700082B00190034A034BDB6843F08003D360C9
:102D800002B0704700440040AFF30080AFF3008012
:102D900008B50348FFF74CFFFEF7BAFC08BD00BFBB
:102DA000500B0020AFF30080AFF30080AFF3008042
:102DB00008B504480021044AFEF782FE014B034A8D
:102DC0005A6708BD500B0020712D000800440040D8
:102DD00000B583B001900091009B002B01D10D4BF9
:102DE0000093019B1B7A012B0DD1019B0A4A934250
:102DF00009D10A4A094B1B6C43F4003313642620A3
:102E00000C21FEF70DFF01980099FFF781FE03B03A
:102E10005DF804FBC0300008500B00200038024071
:102E200008B5FFF7D5F908BDAFF30080AFF3008018
:102E3000704700BFAFF30080AFF30080AFF30080B6
:102E400082B000230193019B83F3118862B602B024
:102E5000704700BFAFF30080AFF30080AFF3008096
:102E600008B5FFF7EDFF08BDAFF30080AFF30080BA
:102E700008B5FFF7F5FF08BDAFF30080AFF30080A2
:102E800000B583B001900198FDF732FF03B05DF803
:102E900004FB00BFAFF30080AFF30080AFF300800E
:102EA00000B583B001900A4B9B690A4A9A610A4BAC
:102EB0004FF480521A834FF4FA70FDF719FF064B56
:102EC0004FF480525A834FF4FA70FDF711FFEEE78A
:102ED00000080020A02F0008000C0240AFF3008083
:102EE00000B583B00023009304484FF4E8714A22F0
:102EF000034BFDF7DDFE03B05DF804FBC80B0020BB
:102F0000A12E0008AFF30080AFF30080AFF3008084
:102F100010B5FEF745FCFDF70BFBFFF7A9FFFFF728
:102F2000DFFF15480021FEF703FE1448042140F29C
:102F30008232FFF70DFC1148082140F28232FFF780
:102F400007FC0D4B1B689C690B480D490E224FF086
:102F5000FF33A0470B4B4FF400521A834FF4FA7023
:102F6000FFF78EFF074B4FF400525A834FF4FA706D
:102F7000FFF786FFE5E700BF500B0020000002408E
:102F8000A82F0008000C0240AFF30080AFF30080D0
:102F900069646C6500000000000000000000000093
:102FA000626C696E6B65720048656C6C6F20576F60
:102FB000726C64210D0A0000000000000000000097
:102FC0006D61696E00160018040444080C10141892
:102FD000001C1D1E0000000000000000000000009A
:102FE0005119000881190008B1190008E1190008F9
:102FF000011A0008311A0008511A0008811A000845
:10300000106002400860024000000B00286002408F
:103010000860024006010C00406002400860024067
:1030200010020D00586002400860024016030E00B6
:10303000706002400C60024000040F008860024093
:103040000C60024006051000A06002400C600240C7
:1030500010061100B86002400C60024016072F00F5
:1030600010640240086402400008380028640240EE
:1030700008640240060939004064024008640240C6
:10308000100A3A005864024008640240160B3B00E4
:10309000706402400C640240000C3C0088640240F2
:1030A0000C640240060D4400A06402400C6402401F
:1030B000100E4500B86402400C640240160F460032
:1030C000009600000000004000000000000000002A
:1030D00000AAA02A00000000FFABFFFF540001403F
:1030E000FFFF00000000565500AA0A0080200800DB
:1030F00040020000FFFFFFFF15455155FFFF000094
:1031000000000004400000000180200200000000D8
:10311000FFFFFFFF54154554FFFF00000000006053
:10312000000606000001005500000000FFFFFFFF41
:1031300055505500FF0F0000000000000000000087
:103140004000000000000000FFFFFFFF0000000043
:10315000FFFF000000000000000000000000000071
:1031600000000000FFFFFFFF00000000FFFF000065
:10317000000000000000000000000000000000004F
:10318000FFFFFFFF00000000FFFF00000000000045
:10319000000000000000000000000000FFFFFFFF33
:1031A00000000000FFFF0000000000000000000021
:1031B0000000000000000000FFFFFFFF0000000013
:0C31C000FFFF0000000000000000000005
:04000005080001C12D
:00000001FF
